:020000040800F2
:100000000000022051170008A9160008B1160008C8
:10001000B9160008C1160008C91600080000000043
:10002000000000000000000000000000D1160008E1
:10003000DF16000800000000ED160008FB1600089F
:10004000A1170008A1170008A1170008A1170008B0
:10005000A1170008A1170008A1170008A1170008A0
:10006000A1170008A1170008A1170008A117000890
:10007000A1170008A1170008A1170008A117000880
:10008000A1170008A1170008A11700080000000030
:10009000000000000000000000000000A1170008A0
:1000A000A1170008A1170008A1170008A117000850
:1000B000A1170008A1170008A1170008A117000840
:1000C000A1170008A1170008A1170008A117000830
:1000D000A1170008A1170008A117000800000000E0
:1000E00007170008A1170008A1170008000000006A
:1000F000000000000000000000000000A117000840
:1001000000000000A1170008A1170008A1170008AF
:1001100000000000000000000000000000000000DF
:10012000A1170008A1170008A1170008A1170008CF
:10013000A1170008000000000000000000000000FF
:100140000000000000000000000000001917000877
:10015000A1170008A1170008A1170008A11700089F
:10016000A1170008A117000800000000000000000F
:10017000000000000000000000000000000000007F
:1001800000000000A11700080000000000000000AF
:08019000A1170008A1170008E7
:1001980010B5054C237833B9044B13B10448AFF3B9
:1001A80000800123237010BD000100200000000022
:1001B800C88A000808B5034B1BB103490348AFF3CD
:1001C800008008BD0000000004010020C88A000863
:1001D800034613F8012B002AFBD1181A013870477F
:1001E80053B94AB9002908BF00281CBF4FF0FF3196
:1001F8004FF0FF3000F088B9ADF1080C6DE904CE7E
:1002080000F006F8DDF804E0DDE9022304B07047E9
:100218002DE9F047089D8E4604468846002B4AD1B2
:100228008A42174662D9B2FA82F64EB1C6F1200365
:1002380001FA06F820FA03F3B74043EA0808B44085
:100248004FEA174E1FFA87FCB8FBFEF1230C0EFB92
:10025800118843EA084301FB0CF29A4209D9FB18BA
:1002680001F1FF3080F0EA809A4240F2E7800239DB
:100278003B449A1AA3B2B2FBFEF00EFB102243EAEB
:10028800024300FB0CFC9C4509D9FB1800F1FF3226
:1002980080F0D6809C4540F2D3803B44023840EA47
:1002A8000140A3EB0C0300211DB1F3400022C5E976
:1002B8000032BDE8F0878B4205D90DB1C5E90001D0
:1002C80000210846F5E7B3FA83F1002946D17345C2
:1002D80002D3824200F20581841A6EEB03020120E8
:1002E8009046002DE5D0C5E90048E2E7002A00F075
:1002F8009080B2FA82F6002E40F0A4808A1A030C8D
:100308004FEA174E80B2BCB20121B2FBFEFC0EFBD5
:100318001C2243EA024304FB0CF29A4207D9FB1859
:100328000CF1FF3802D29A4200F2E080C4469B1AD0
:10033800B3FBFEF20EFB123340EA034302FB04F464
:100348009C4207D9FB1802F1FF3002D29C4200F20E
:10035800CA8002461B1B42EA0C40A5E7C1F12006F1
:100368008B4022FA06F71F430EFA01F420FA06F32F
:100378002EFA06FE4FEA1749234300FA01F81FFA3E
:1003880087FCBEFBF9F01C0C09FB10EE44EA0E4496
:1003980000FB0CFEA64502FA01F209D93C1900F14E
:1003A800FF3A80F09C80A64540F2998002383C4490
:1003B800A4EB0E041FFA83FEB4FBF9F309FB134404
:1003C8004EEA044403FB0CFCA44508D93C1903F18C
:1003D800FF3E80F08280A4457FD9023B3C4443EA3B
:1003E8000040A4EB0C04A0FB02EC64457346E14614
:1003F80062D35FD05DB1B8EB030264EB090404FA81
:1004080006F622FA01F31E43CC40C5E90064002138
:100418004FE7B1FBF2FC010C41EA0E4180B240EA21
:1004280001423B4638463C46B846BE462026B1FB0C
:10043800F7F1A2EB080241EA0C4166E7014618E72A
:1004480010462CE7C6F120022EFA02F3B740B1405D
:1004580020FA02F24FEA174E0A43B3FBFEF8BCB289
:100468000EFB1833110C41EA034108FB04F9B040B4
:1004780089454FEA104380B23ED9791808F1FF3C0C
:1004880001D289451FD8A1EB0901B1FBFEF909FB8F
:1004980004F80EFB191192B242EA0142424529D2F0
:1004A800BA1809F1FF31C4D24245C2D2A9F10201FA
:1004B8003A44BEE7F0459DD2BEEB02036CEB070C55
:1004C8000138E14696E7A7EB09094944A8F1020C6F
:1004D800B1FBFEF909FB04F8DBE773467FE75046FA
:1004E80066E70846FDE63B44023A33E7ACF1020C06
:1004F8003B441CE749469CE7A1EB0901C446B1FB14
:10050800FEF909FB04F8C4E7704700BF80B582B064
:1005180000AF00F0E9FB124B00221A70114B0022C9
:100528001A700023FB7113E0FB790F4A0021D154A4
:10053800FB790E4A0021D154FB791B010C4A134464
:100548001022FF21184608F073FAFB790133FB717A
:10055800FB79042BE8D900BF00BF0837BD4680BD32
:100568007D0100201D0100202001002078010020CD
:100578002801002080B5C8B000AF07F59073A3F537
:100588008E73186007F59073A3F58E730D211868A4
:1005980008F056FAC7F81801D7F81831002B03D01D
:1005A800D7F8183100221A7007F59073A3F58E73E7
:1005B8000A21186808F044FAC7F81801D7F8183162
:1005C800002B03D0D7F8183100221A7007F5907362
:1005D800A3F58E731B681B78002B01D10123BAE0A9
:1005E80007F59073A3F58E731B681B783A2B01D01F
:1005F8000123B0E007F10C0207F59073A3F58E73A1
:100608001146186800F086FB034683F00103DBB24D
:10061800002B01D001239EE007F59073A3F58A73A0
:1006280093F8093183F00103DBB2002B04D00220D8
:1006380000F004F900238EE007F59073A3F58A73A0
:100648001B78042B06D007F59073A3F58A731B78E3
:10065800022B01D101237EE007F59073A3F58A737D
:100668001B78012B04D13E4B01221A70012372E042
:1006780007F59073A3F58A731B78032B06D007F54B
:100688009073A3F58A731B78052B01D1012362E0CF
:1006980007F59073A3F58A731B78002B5AD107F5D9
:1006A8009073A3F58A735B682E4A934207D907F5BE
:1006B8009073A3F58A735B682B4A934204D903208D
:1006C80000F0BCF8002346E0002387F81F313DE026
:1006D80007F59073A3F58A735A6897F81F31234971
:1006E80051F823309A422CD197F81F31204AD35C15
:1006F80083F00103DBB2002B23D097F81F311C4A8B
:100708000121D15407F59073A3F58A7393F8082152
:1007180097F81F31102A28BF1022D1B2154AD15498
:1007280097F81F311B01144A981897F81F31114A7E
:10073800D35C1A4607F10C030833194608F0B2F9DE
:1007480008E097F81F31013387F81F3197F81F31F8
:10075800042BBDD90123184607F59077BD4680BD07
:100768001D010020FFFF0008FFFF0108288B00087B
:1007780020010020780100202801002080B582B0E7
:1007880000AF0023FB710FE0FB79274AD35C83F0AD
:100798000103DBB2002B04D0042000F04FF8002343
:1007A8003EE0FB790133FB71FB79042BECD91F4B3D
:1007B8001B7883F00103DBB2002B0CD000F05CF94E
:1007C8000346002B04D0052000F038F8002327E06A
:1007D800164B01221A700023BB711DE0BB79144A25
:1007E800D35C002B15D0BB79124A52F82300BB7991
:1007F8001B01114A9918BB790D4AD35C1A4600F0BF
:1008080067F90346002B04D0062000F017F80023F0
:1008180006E0BB790133BB71BB79042BDED9012318
:1008280018460837BD4680BD200100207D01002004
:1008380078010020288B00082801002080B483B0AC
:1008480000AF0346FB71044AFB79137000BF0C37F5
:10085800BD465DF8047B70471C01002080B483B05E
:1008680000AF78602F4B5A6F7B681A607B681B68F3
:10087800DBB203F00103DAB27B681A717B681B688C
:100888005B08DBB203F00103DAB27B685A717B685C
:100898001B685B0EDBB203F00103DAB27B689A7166
:1008A8007B681B689B0EDBB203F00103DAB27B683E
:1008B800DA717B681B68DB0EDBB203F00103DAB286
:1008C8007B681A727B681B681B0FDBB203F001039D
:1008D800DAB27B685A727B681B685B0FDBB203F085
:1008E8000103DAB27B689A727B681B689B0FDBB2E4
:1008F80003F00103DAB27B68DA727B681B68DB0FEE
:10090800DAB27B681A737B681B681B0EDBB203F0D4
:100918000103DAB27B685A7300BF0C37BD465DF835
:10092800047B70470038024080B584B000AF1E4B8E
:100938001B68FB601D4B1B68BB60FB68B3F1005F65
:100948002DD3FB681A4A934229D8BB68B3F1006FCC
:1009580025D3BB68174A934221D8BB6803F001032B
:10096800002B1CD072B600BF00F03AFF03F0E0FC89
:10097800114B00221A60104B00225A600E4B0022C5
:100988009A600E4B084A9A60BB687B60FB683B60C4
:100998003B6883F3088800BF7B68984700E000BF86
:1009A8001037BD4680BD00BF00C0000804C0000865
:1009B80000000220FFFF070810E000E000ED00E063
:1009C80080B400AF044B4AF6AA221A6000BFBD46A5
:1009D8005DF8047B704700BF0030004080B483B0EE
:1009E80000AF0346FB71FB792F2B06D9FB79392B16
:1009F80003D8FB79303BDBB214E0FB79402B06D9F6
:100A0800FB79462B03D8FB79373BDBB20AE0FB794D
:100A1800602B06D9FB79662B03D8FB79573BDBB2F1
:100A280000E0002318460C37BD465DF8047B70478C
:100A380080B485B000AF786039600023FB81002363
:100A4800BB600AE07A68BB6813441B781A46FB89C6
:100A58001344FB81BB680133BB60BA683B689A42A8
:100A6800F0D3FB89DBB25B42DBB218461437BD46D4
:100A78005DF8047B7047000080B588B000AF0023A4
:100A8800FB7701F0BBF8114BF322DA6007F108039A
:100A980000221A605A609A60DA601A6104233B6186
:100AA80001237B610223BB6100237B603A1D07F1B0
:100AB80008031146184601F013FA0346FB7701F0C4
:100AC800BFF8FB7F18462037BD4680BD003C02407A
:100AD800B0B588B000AFF860B9607A600023FB77E2
:100AE80001F08CF8214BF322DA600023BB6130E07F
:100AF8004FF0FF333B6100237B610DE0BA697B69EE
:100B08001344BA681A4407F110017B690B44127840
:100B18001A707B6901337B617B69032B05D8BA693D
:100B28007B6913447A689A42E8D8FA68BB69D11895
:100B38003B6900221C46154622462B46022001F03E
:100B48000BF80346FB77FB7F002B07D1BB69043307
:100B5800BB61BA697B689A42CAD300E000BF01F062
:100B68006FF8FB7F18462037BD46B0BD003C0240F9
:100B780090B5A5B000AF78607868FFF729FB034609
:100B8800A7F88A30B7F88A300A2B03D97B681B7814
:100B98003A2B01D0002362E0002387F88F3001232D
:100BA800A7F88C302EE0B7F88C305A1CB7F88A308A
:100BB8009A422EDAB7F88C307A6813441B781846B4
:100BC800FFF70CFF03465BB21B015CB2B7F88C3031
:100BD80001337A6813441B781846FFF7FFFE034673
:100BE8005BB223435AB297F88F30591C87F88F109D
:100BF800D2B290333B4403F8882CB7F88C300233D8
:100C0800A7F88C30B7F88C20B7F88A309A42CAD344
:100C180000E000BF97F88F30042B01D800231EE0B6
:100C280097F88F30013B1A4607F10803114618461A
:100C3800FFF7FEFE034687F8893097F88F30013BAF
:100C480090333B4413F8883C87F8883097F889201C
:100C580097F888309A420CBF01230023DBB218466C
:100C68009437BD4690BD000080B483B000AF034602
:100C78003960FB711346BB71FB79042B10D1BB792A
:100C8800012B0DD93B681B781A063B6801331B788A
:100C98001B041343114A1360114B01221A7016E00A
:100CA800FB79022B13D1BB79012B10D93B681B7838
:100CB8001BB21B021AB23B6801331B781BB21343E9
:100CC8001BB29AB2074B1A80054B00221A7000BF5C
:100CD8000C37BD465DF8047B704700BF80010020DB
:100CE800000000208401002080B400AF064B0022E1
:100CF8001A60064B00221A80054B01221A7000BFA9
:100D0800BD465DF8047B7047800100208401002007
:100D18000000002090B5A7B000AF786039607B680C
:100D2800002B02D03B68002B01D10023C9E03B68AF
:100D380000221A703B6800225A603B68002283F840
:100D480008213B68002283F809217868FFF740FAF8
:100D58000346A7F89030B7F890300A2B03D97B6880
:100D68001B783A2B01D00023ABE07868FFF700FF2F
:100D780003461A463B6883F80921002387F8973011
:100D88000123A7F8943027E0B7F894307A68134421
:100D98001B781846FFF722FE03465BB21B015CB2C4
:100DA800B7F8943001337A6813441B781846FFF774
:100DB80015FE03465BB223435AB297F89730591C85
:100DC80087F89710D2B298333B4403F8902CB7F8C1
:100DD80094300233A7F89430B7F89420B7F89030DD
:100DE800023B9A42D0DB97F89730032B01D80023B7
:100DF80067E03B7A87F88F307B7A1BB21B021AB206
:100E0800BB7A1BB213431BB2A7F88C30FB7A87F866
:100E18008B303B6897F88B201A702C4B1B78002B73
:100E280007D0B7F88C202A4B1B681A443B685A60D5
:100E380007E0284B1B881A01B7F88C301A443B6826
:100E48005A6097F88F30002B27D097F88F30DA1C2C
:100E580097F897309A4220DA3B6897F88F2083F802
:100E68000821002387F8933011E097F893301A1D72
:100E780097F8933098323A4412F8901C3A68134421
:100E88000A461A7297F89330013387F8933097F827
:100E9800932097F88F309A42E7D397F88B30022B3C
:100EA80003D097F88B30042B0AD13B6803F1080173
:100EB8003B6893F8082197F88B301846FFF7D4FE63
:100EC800012318469C37BD4690BD00BF0000002096
:100ED800800100208401002080B582B000AF034665
:100EE800FB71094B1B68002B07D0074B1B68074A8F
:100EF8001188FA79184601F0AFFA054AFB791370A0
:100F080000BF0837BD4680BD880100208C01002045
:100F18009401002080B582B000AF78600B467B80DA
:100F28000C4A7B6813600C4A7B8813800B4B0022A9
:100F38001A7000F0CFFC0346094A1360094B0022DF
:100F48001A70094B00221A7000F0C7F800BF083762
:100F5800BD4680BD880100208C0100208E01002044
:100F680090010020940100209501002080B582B0F6
:100F780000AF0346FB71194AFB79137000F0AAFC15
:100F88000346174A1360174B00221A70FB79013B7E
:100F9800032B1DD801A252F823F000BFB50F00089B
:100FA800C10F0008BB0F0008CD0F000800F08EF835
:100FB8000FE000F092F80CE00B4B00221A7000F0E2
:100FC8008CF806E0084B00221A7000F086F800E062
:100FD80000BF00BF0837BD4680BD00BF8E0100209E
:100FE80090010020950100209401002080B400AFFA
:100FF800034B1B781846BD465DF8047B704700BF5D
:101008008E01002080B582B000AF00F063FC7860EC
:101018002A4B1B78042B4CD801A252F823F000BFAE
:10102800B1100008B11000083D100008B110000808
:1010380055100008224B1B687A68D31A312B35D912
:101048001F4A7B68136000F04FF82FE01D4B1B7898
:10105800002B15D11C4B1B7883F00103DBB2002B4E
:1010680001D000F033F8164B1B687A68D31A632B4B
:101078001ED9134A7B681360124B01221A7017E0BD
:10108800114B1B78002B01D000F027F80C4B1B6884
:101098007A68D31AB3F5617F0AD3094A7B6813606B
:1010A800084B00221A7003E000BF02E000BF00E016
:1010B80000BF00BF0837BD4680BD00BF8E010020BD
:1010C80090010020950100209401002080B500AF18
:1010D8000120FFF701FF00BF80BD80B500AF0020F1
:1010E800FFF7FAFE00BF80BD80B500AF084B1B7844
:1010F800002B14BF01230023DBB283F00103DBB212
:1011080003F00103DBB21846FFF7E6FE00BF80BD1F
:101118009401002080B584B000AF78603960364B08
:101128001B7883F00103DBB2002B61D10023FB6045
:1011380045E07A68FB6813441B78FB72FB7A0A2B3C
:101148001DD12E4B1B88002B36D02C4B1B881A46E2
:101158002B4B002199542A48FFF70CFA034683F0D9
:101168000103DBB2002B06D0234B00221A70254B5B
:1011780000221A703DE0214B00221A801CE0FB7A05
:101188000D2B18D01D4B1B887E2B0AD81B4B1B8898
:101198005A1C91B2194A11801946194AFB7A5354BC
:1011A8000AE00220FFF74AFB134B00221A70154B86
:1011B80000221A701DE000BFFB680133FB60FA686B
:1011C8003B689A42B5D3104B1B78002B11D00A4BC1
:1011D80000221A700B4B00221A70FFF7CFFA00207A
:1011E800FFF7C4FE00F076FB0346084A136000E0F0
:1011F80000BF1037BD4680BD7E0200207C02002063
:10120800FC0100207F0200201D0100208002002038
:1012180080B584B000AF00F0C1FA00F0AFF800F07C
:101228005BF900F02FF906F013FF00F011F94B48B5
:10123800FFF714FB4A4B5B6F494A43F080735367CF
:10124800FFF764F920214748FFF764FE464B002268
:101258001A80464B00221A70454B00221A70002053
:10126800FFF784FE00F036FB0346424A1360002372
:10127800FB600023BB600023FB71FFF7A1FB00F0BC
:1012880029FB3860FFF7BEFE394B1B78002B0AD0CC
:10129800364B1B7883F00103DBB2002B5BD0344B59
:1012A80000221A7057E0334B1B683A68D31A41F290
:1012B8008732934201D9FFF737FBFFF797FE0346C2
:1012C800002B1FD13A68FB68D31A632B1AD93B68E5
:1012D800FB60FB79C3F10703A82242FA03F303F08A
:1012E8000103002B02D0FFF7F1FE01E0FFF7F5FE46
:1012F800FB7901335A4203F0070302F0070258BF93
:101308005342FB713A68BB68D31A312BB5D93B6895
:10131800BB604FF40051184801F086F80346002BD3
:10132800ABD1322000F0E2FA4FF40051124801F03C
:101338007BF80346002BA0D1FFF7E8F80A4B002200
:101348001A800A4B01221A70094B01221A700120D7
:10135800FFF70CFE91E700BF8FE700BFEC0100200C
:1013680000380240000002407C0200207E0200207B
:101378007F020020800200200008024080B594B05F
:1013880000AF07F1200330220021184607F050FB78
:1013980007F10C0300221A605A609A60DA601A6139
:1013A8000023BB60284B1B6C274A43F0805313640F
:1013B800254B1B6C03F08053BB60BB6800237B602C
:1013C800224B1B68214A43F4404313601F4B1B68A0
:1013D80003F440437B607B6809233B624FF4A023FE
:1013E8007B6201237B630223BB634FF48003FB63AF
:1013F80004233B6448237B640223BB640323FB640C
:1014080007F12003184602F0FBFA0346002B01D02F
:1014180000F0D0F80F23FB6002233B6100237B61BF
:101428004FF48053BB610023FB6107F10C030221D9
:10143800184602F05DFD0346002B01D000F0BAF813
:1014480000BF5037BD4680BD0038024000700040E4
:1014580080B500AF094B0A4A1A60084B05225A604A
:10146800064B40F6FF729A60044801F032F80346D2
:10147800002B01D000F09EF800BF80BD980100202D
:101488000030004080B500AF114B124A1A60104B73
:101498004FF4E1325A600E4B00229A600C4B002246
:1014A800DA600B4B00221A61094B0C225A61084B77
:1014B80000229A61064B0022DA61054803F006F81B
:1014C8000346002B01D000F075F800BF80BD00BFB7
:1014D800A40100200044004080B58AB000AF07F1A5
:1014E800140300221A605A609A60DA601A610023B5
:1014F8003B612D4B1B6B2C4A43F0040313632A4BAF
:101508001B6B03F004033B613B690023FB60264B24
:101518001B6B254A43F080031363234B1B6B03F0BB
:101528008003FB60FB680023BB601F4B1B6B1E4ADC
:1015380043F0010313631C4B1B6B03F00103BB60F7
:10154800BB6800237B60184B1B6B174A43F00203F0
:101558001363154B1B6B03F002037B607B6800224F
:101568002021124800F078FF4FF400537B610023DC
:10157800BB610023FB6107F1140319460C4800F016
:10158800CFFD20237B610123BB610023FB61002386
:101598003B6207F114031946044800F0C1FD00BF7F
:1015A8002837BD4680BD00BF003802400000024019
:1015B8000008024080B400AF72B600BF00BFFDE76C
:1015C80080B582B000AF00237B60104B5B6C0F4A84
:1015D80043F4804353640D4B5B6C03F480437B609E
:1015E8007B6800233B60094B1B6C084A43F080531F
:1015F8001364064B1B6C03F080533B603B68072069
:1016080000F068FA00BF0837BD4680BD00380240C8
:1016180080B58AB000AF786007F1140300221A6021
:101628005A609A60DA601A617B681B68194A9342AB
:101638002BD100233B61184B1B6C174A43F4003332
:101648001364154B1B6C03F400333B613B690023A7
:10165800FB60114B1B6B104A43F0010313630E4BE5
:101668001B6B03F00103FB60FB680C237B61022307
:10167800BB610023FB6103233B6207237B6207F105
:1016880014031946054800F04BFD00BF2837BD4636
:1016980080BD00BF00440040003802400000024006
:1016A80080B400AF00BFFDE780B400AF00BFFDE726
:1016B80080B400AF00BFFDE780B400AF00BFFDE716
:1016C80080B400AF00BFFDE780B400AF00BFBD46E7
:1016D8005DF8047B704780B400AF00BFBD465DF87D
:1016E800047B704780B400AF00BFBD465DF8047B43
:1016F800704780B500AF00F0D9F800BF80BD80B555
:1017080000AF4FF4005000F0C1FE00BF80BD0000E4
:1017180080B500AF024801F064F800BF80BD00BF8B
:101728008817002080B400AF064BD3F88830054AEC
:1017380043F47003C2F8883000BFBD465DF8047BEF
:10174800704700BF00ED00E0DFF834D0FFF7EAFF94
:101758000C480D490D4A002302E0D458C450043304
:10176800C4188C42F9D30A4A0A4C002301E01360DA
:101778000432A242FBD307F071F9FFF749FD704725
:10178800000002200000002000010020648B0008F7
:10179800000100208C1E0020FEE7000080B500AF8D
:1017A8000E4B1B680D4A43F4007313600B4B1B6808
:1017B8000A4A43F480631360084B1B68074A43F4E2
:1017C80080731360032000F085F9002000F03EF8D4
:1017D800FFF7F6FE0023184680BD00BF003C02401C
:1017E80080B500AF114B124A1A62104B00221A62E0
:1017F8000E4B104A5A620D4B00225A620B4B0E4A8E
:101808001A610A4B00221A61084B80225A61074B61
:1018180000225A61054B4FF0FF329A61034B0022B8
:101828009A6100F00BF80023184680BD003802408A
:101838000FC8E210317917009F10600080B400AF24
:1018480000BFBD465DF8047B7047000080B582B0DC
:1018580000AF7860124B1A68124B1B7819464FF488
:101868007A73B3FBF1F3B2FBF3F3184600F067F9B0
:101878000346002B01D001230EE07B680F2B0AD80A
:10188800002279684FF0FF3000F02FF9064A7B6894
:101898001360002300E0012318460837BD4680BDC9
:1018A800040000200C0000200800002080B400AFD5
:1018B800064B1B781A46064B1B681344044A1360F0
:1018C80000BFBD465DF8047B704700BF0C000020D8
:1018D8008402002080B400AF034B1B681846BD4645
:1018E8005DF8047B704700BF8402002080B584B097
:1018F80000AF7860FFF7EEFFB8607B68FB60FB68BD
:10190800B3F1FF3F05D00A4B1B781A46FB68134416
:10191800FB6000BFFFF7DEFF0246BB68D31AFA6818
:101928009A42F7D800BF00BF1037BD4680BD00BF40
:101938000C00002080B485B000AF78607B6803F0AD
:101948000703FB600C4BDB68BB60BA684FF6FF030C
:101958001340BB60FB681A02BB68134343F0BF63C4
:1019680043F40033BB60044ABB68D36000BF14373C
:10197800BD465DF8047B704700ED00E080B400AF21
:10198800044BDB681B0A03F007031846BD465DF8E5
:10199800047B704700ED00E080B483B000AF0346DD
:1019A800FB7197F90730002B0BDBFB7903F01F0263
:1019B800074997F907305B09012000FA02F241F85C
:1019C800232000BF0C37BD465DF8047B704700BF7D
:1019D80000E100E080B483B000AF03463960FB71DA
:1019E80097F90730002B0ADB3B68DAB20C4997F904
:1019F80007301201D2B20B4483F800230AE03B6897
:101A0800DAB20849FB7903F00F03043B1201D2B2A2
:101A18000B441A7600BF0C37BD465DF8047B70474F
:101A280000E100E000ED00E080B489B000AFF860AC
:101A3800B9607A60FB6803F00703FB61FB69C3F1D7
:101A48000703042B28BF0423BB61FB690433062B5F
:101A580002D9FB69033B00E000237B614FF0FF32B2
:101A6800BB6902FA03F3DA43BB681A407B699A4000
:101A78004FF0FF317B6901FA03F3D9437B680B40D0
:101A8800134318462437BD465DF8047B70470000B1
:101A980080B582B000AF78607B68013BB3F1807F8E
:101AA80001D301230FE00A4A7B68013B53600F21F1
:101AB8004FF0FF30FFF78EFF054B00229A60044B72
:101AC80007221A60002318460837BD4680BD00BFAC
:101AD80010E000E080B582B000AF78607868FFF76A
:101AE80029FF00BF0837BD4680BD80B586B000AF6E
:101AF8000346B9607A60FB7300237B61FFF73EFF02
:101B080078617A68B9687869FFF78EFF024697F9B5
:101B18000F3011461846FFF75DFF00BF1837BD4666
:101B280080BD80B582B000AF0346FB7197F90730DE
:101B38001846FFF731FF00BF0837BD4680BD80B5A6
:101B480082B000AF78607868FFF7A2FF03461846B6
:101B58000837BD4680BD000080B586B000AFF8608C
:101B6800B960C7E90023234B1B7E012B01D1022357
:101B78003BE0204B01221A764CF2503000F070F80E
:101B88000346FB75FB7D002B2BD1FB68002B05D191
:101B98003B781946B86800F01BF916E0FB68012B82
:101BA80005D13B881946B86800F0EEF80DE0FB68EF
:101BB800022B05D13B681946B86800F0C3F804E069
:101BC800D7E90023B86800F08BF84CF2503000F0E9
:101BD80047F80346FB75084B1B69074A23F00103C6
:101BE8001361044B00221A76FB7D18461837BD4650
:101BF80080BD00BF88020020003C024080B483B052
:101C080000AF0023FB710B4B1B69002B0BDA094B50
:101C1800094A5A60074B094A5A60064B1B69002B50
:101C280001DA0123FB71FB7918460C37BD465DF8D4
:101C3800047B7047003C024023016745AB89EFCD28
:101C480080B400AF054B1B69044A43F0004313619D
:101C580000231846BD465DF8047B7047003C0240EF
:101C680080B584B000AF78600023FB601A4B002277
:101C7800DA61FFF72FFEF86010E07B68B3F1FF3FF1
:101C88000CD07B68002B07D0FFF724FE0246FB68C8
:101C9800D31A7A689A4201D2032319E00F4BDB6802
:101CA80003F48033002BE8D10C4BDB6803F001030D
:101CB800002B02D0094B0122DA60084BDB6803F4E1
:101CC800F973002B03D000F0A5F8012300E00023EE
:101CD80018461037BD4680BD88020020003C0240EF
:101CE80080B485B000AFF860C7E90023144B1B69C6
:101CF800134A23F440731361114B1B69104A43F4D0
:101D0800407313610E4B1B690D4A43F001031361C5
:101D1800FB683A681A60BFF36F8F00BFD7E900010C
:101D28004FF000024FF000030A000023F968043165
:101D380013460B6000BF1437BD465DF8047B70473F
:101D4800003C024080B483B000AF786039600D4B2E
:101D58001B690C4A23F4407313610A4B1B69094A37
:101D680043F400731361074B1B69064A43F00103F0
:101D780013617B683A681A6000BF0C37BD465DF88E
:101D8800047B7047003C024080B483B000AF7860A9
:101D98000B467B800D4B1B690C4A23F4407313617F
:101DA8000A4B1B69094A43F480731361074B1B698B
:101DB800064A43F0010313617B687A881A8000BFE2
:101DC8000C37BD465DF8047B704700BF003C0240FD
:101DD80080B483B000AF78600B46FB700C4B1B6976
:101DE8000B4A23F440731361094B094A1B691361B9
:101DF800074B1B69064A43F0010313617B68FA78B5
:101E08001A7000BF0C37BD465DF8047B704700BFF1
:101E1800003C024080B400AF2F4BDB6803F0100396
:101E2800002B08D02D4BDB6943F010032B4AD361FC
:101E3800294B1022DA60284BDB6803F02003002BC3
:101E480008D0264BDB6943F00803244AD361224BB0
:101E58002022DA60204BDB6803F04003002B08D017
:101E68001E4BDB6943F004031C4AD3611A4B402222
:101E7800DA60194BDB6803F08003002B08D0174B9E
:101E8800DB6943F00203154AD361134B8022DA6001
:101E9800114BDB6803F48073002B09D00F4BDB690F
:101EA80043F001030D4AD3610B4B4FF48072DA60A3
:101EB800094BDB6803F00203002B08D0074BDB69F2
:101EC80043F02003054AD361034B0222DA6000BFC6
:101ED800BD465DF8047B7047003C02408802002044
:101EE80080B584B000AF786039600023BB60314BA7
:101EF8001B7E012B01D1022358E02E4B01221A76BA
:101F08004CF25030FFF7ACFE0346FB73FB7B002B13
:101F180048D13B684FF0FF321A607B681B68012B81
:101F280015D17B681B69DAB27B685B681946104675
:101F380000F044F84CF25030FFF792FE0346FB7372
:101F48001D4B1B691C4A23F00403136128E07B68BE
:101F58009B68BB601CE07B681B69DBB21946B868EC
:101F680000F050F84CF25030FFF77AFE0346FB734E
:101F7800114B1B69104A23F0FA031361FB7B002BFA
:101F880003D03B68BA681A600AE0BB680133BB60DB
:101F98007B68DA687B689B681344BA689A42DAD32C
:101FA80000F078F8034B00221A76FB7B18461037AE
:101FB800BD4680BD88020020003C024080B483B04A
:101FC80000AF03463960FB710D4B1B690C4A23F4C3
:101FD800407313610A4B1B69094A43F004031361F8
:101FE800074B1A69FB791B021343054A43F48033F4
:101FF800136100BF0C37BD465DF8047B704700BF16
:10200800003C024080B485B000AF78600B46FB709E
:102018000023FB60FB78002B02D10023FB6010E05B
:10202800FB78012B03D14FF48073FB6009E0FB7848
:10203800022B03D14FF40073FB6002E04FF44073AE
:10204800FB60134B1B69124A23F440731361104B56
:102058001A690F49FB6813430B610D4B1B690C4A46
:1020680023F0F80313610A4B1A697B68DB001343FA
:10207800074A43F002031361054B1B69044A43F402
:102088008033136100BF1437BD465DF8047B704789
:10209800003C024080B400AF204B1B6803F400737F
:1020A800002B17D01D4B1B681C4A23F400731360C8
:1020B8001A4B1B68194A43F400631360174B1B68DB
:1020C800164A23F400631360144B1B68134A43F445
:1020D80000731360114B1B6803F48063002B17D047
:1020E8000E4B1B680D4A23F4806313600B4B1B686F
:1020F8000A4A43F480531360084B1B68074A23F4C9
:1021080080531360054B1B68044A43F480631360D3
:1021180000BFBD465DF8047B704700BF003C02402D
:1021280080B489B000AF7860396000237B610023F8
:102138003B610023BB610023FB6159E10122FB697C
:1021480002FA03F37B613B681B687A6913403B61C1
:102158003A697B699A4240F048813B685B6803F0C2
:102168000303012B05D03B685B6803F00303022BD4
:1021780030D17B689B68BB61FB695B00032202FA74
:1021880003F3DB43BA691340BB613B68DA68FB6958
:102198005B0002FA03F3BA691343BB617B68BA694F
:1021A8009A607B685B68BB610122FB6902FA03F3F2
:1021B800DB43BA691340BB613B685B681B0903F0EA
:1021C8000102FB6902FA03F3BA691343BB617B6836
:1021D800BA695A603B685B6803F00303032B17D0A6
:1021E8007B68DB68BB61FB695B00032202FA03F3CF
:1021F800DB43BA691340BB613B689A68FB695B00C3
:1022080002FA03F3BA691343BB617B68BA69DA60FF
:102218003B685B6803F00303022B23D1FB69DA08F0
:102228007B68083253F82230BB61FB6903F007036F
:102238009B000F2202FA03F3DB43BA691340BB6128
:102248003B681A69FB6903F007039B0002FA03F372
:10225800BA691343BB61FB69DA087B680832B9695C
:1022680043F822107B681B68BB61FB695B00032293
:1022780002FA03F3DB43BA691340BB613B685B684E
:1022880003F00302FB695B0002FA03F3BA69134324
:10229800BB617B68BA691A603B685B6803F44033CA
:1022A800002B00F0A2800023FB60574B5B6C564A62
:1022B80043F480435364544B5B6C03F48043FB60EA
:1022C800FB68524AFB699B08023352F82330BB6112
:1022D800FB6903F003039B000F2202FA03F3DB43BD
:1022E800BA691340BB617B68494A934219D07B683D
:1022F800484A934213D07B68474A93420DD07B6883
:10230800464A934207D07B68454A934201D1042349
:1023180008E0072306E0032304E0022302E0012388
:1023280000E00023FA6902F0030292009340BA69C0
:102338001343BB613549FB699B080233BA6941F80D
:102348002320384B9B68BB613B69DB43BA69134068
:10235800BB613B685B6803F48013002B03D0BA6948
:102368003B691343BB612F4ABB6993602D4BDB6804
:10237800BB613B69DB43BA691340BB613B685B687F
:1023880003F40013002B03D0BA693B691343BB6104
:10239800244ABB69D360234B5B68BB613B69DB4361
:1023A800BA691340BB613B685B6803F40033002BD8
:1023B80003D0BA693B691343BB611A4ABB695360CE
:1023C800184B1B68BB613B69DB43BA691340BB61AF
:1023D8003B685B6803F48033002B03D0BA693B6920
:1023E8001343BB610F4ABB691360FB690133FB618F
:1023F800FB690F2B7FF6A2AE00BF00BF2437BD4696
:102408005DF8047B704700BF003802400038014087
:10241800000002400004024000080240000C024094
:1024280000100240003C014080B485B000AF7860E5
:102438000B467B807B681A697B881340002B02D08F
:102448000123FB7301E00023FB73FB7B1846143761
:10245800BD465DF8047B704780B483B000AF7860F8
:102468000B467B8013467B707B78002B03D07A88E1
:102478007B689A6103E07B881A047B689A6100BFD5
:102488000C37BD465DF8047B7047000080B582B00C
:1024980000AF0346FB80084B5A69FB881340002BAA
:1024A80006D0054AFB885361FB88184600F006F8F9
:1024B80000BF0837BD4680BD003C014080B483B0F2
:1024C80000AF0346FB8000BF0C37BD465DF8047BB8
:1024D800704780B584B000AF78607B68002B01D16D
:1024E800012336E07B681B684CF6CC421A607B6897
:1024F8001B6845F255521A607B681B687A685268F7
:102508005A607B681B687A6892689A60FFF7E2F9FC
:10251800F86011E0FFF7DEF90246FB68D31A41F6CE
:102528000102934208D97B681B68DB6803F0030348
:10253800002B01D003230CE07B681B68DB6803F0E9
:102548000303002BE6D17B681B684AF6AA221A60AF
:10255800002318461037BD4680BD80B586B002AF4F
:1025680078607B68002B01D1012301E17B681B683F
:10257800BB607B6893F89534DBB2002B06D17B688F
:10258800002283F89424786805F048FF7B680322CA
:1025980083F89524BB68B3F1A04F02D17B68002271
:1025A8009A717B681B68184602F06BFB7B68186899
:1025B8007B681A7C8DF8002004330ECB02F04AFAAF
:1025C8000346002B05D07B68022283F8952401235B
:1025D800CEE07B681B680021184602F063FB0346C7
:1025E800002B05D07B68022283F895240123BFE0E5
:1025F8000023FB734AE0FA7B79681346DB00134437
:102608009B000B44153301221A70FA7B7968134634
:10261800DB0013449B000B441433FA7B1A70FA7BDB
:10262800FB7B98B279681346DB0013449B000B448C
:102638002E3302461A80FA7B79681346DB0013446E
:102648009B000B44183300221A70FA7B79681346F2
:10265800DB0013449B000B441C3300221A60FA7BF6
:1026680079681346DB0013449B000B442033002297
:102678001A60FA7B79681346DB0013449B000B440D
:10268800243300221A60FB7B0133FB737B681B79C0
:10269800FA7B9A42AFD30023FB7344E0FA7B796854
:1026A8001346DB0013449B000B4403F2552300221E
:1026B8001A70FA7B79681346DB0013449B000B44BD
:1026C80003F51573FA7B1A70FA7B79681346DB00F9
:1026D80013449B000B4403F5167300221A70FA7B0F
:1026E80079681346DB0013449B000B4403F517730A
:1026F80000221A60FA7B79681346DB0013449B00BA
:102708000B4403F5187300221A60FA7B79681346A4
:10271800DB0013449B000B4403F5197300221A6075
:10272800FB7B0133FB737B681B79FA7B9A42B5D339
:102738007B6818687B681A7C8DF8002004330ECB00
:1027480002F0FCFA0346002B05D07B68022283F8CE
:10275800952401230CE07B6800225A747B680122CF
:1027680083F895247B681B68184603F046FB002312
:1027780018461037BD4680BD80B584B000AF78607C
:102788007B681B68FB607B6893F89434012B01D14C
:10279800022322E07B68012283F89424FB68DB682B
:1027A80003F04003002B09D07B685B7B012B05D12C
:1027B800FB689B6B43F48032FB689A637B681B68F9
:1027C800184602F04DFA7B681B68184603F0F4FAC5
:1027D8007B68002283F89424002318461037BD46EE
:1027E80080BD90B58DB000AF78607B681B683B6298
:1027F8003B6AFB617B681B68184603F0B2FB034623
:10280800002B40F08C847B681B68184603F016FB8D
:102818000346002B00F08284FB6903F500639B6884
:102828001B0AC3F30D027B68C3F8D4247B681B68BA
:10283800184603F003FB034603F00203022B07D1FB
:102848007B681B685A697B681B6802F002025A6140
:102858007B681B68184603F0F1FA034603F010037F
:10286800102B61D17B681B689A697B681B6822F012
:1028780010029A613B6A1B6ABB61BB6903F00F02D5
:102888001346DB0013449B0003F514737A68134462
:1028980004337B61BB6903F4F013B3F5802F24D1B3
:1028A800BA6947F6F0731340002B35D07B69D968B5
:1028B800BB691B099BB2C3F30A039BB21A46386A69
:1028C80003F028F97B69DA68BB691B09C3F30A03BB
:1028D8001A447B69DA607B695A69BB691B09C3F3CF
:1028E8000A031A447B695A6116E0BB6903F4F013C2
:1028F800B3F5402F10D17B6803F29C430822194698
:10290800386A03F007F97B695A69BB691B09C3F385
:102918000A031A447B695A617B681B689A697B6859
:102928001B6842F010029A617B681B68184603F026
:1029380085FA034603F40023B3F5002F40F0A7807F
:1029480000237B627B681B68184603F08AFAB8622A
:1029580099E0BB6A03F00103002B00F08E807B68CE
:102968001B687A6AD2B21146184603F0AEFA38618B
:102978003B6903F00103002B0CD07B6A5A01FB6909
:10298800134403F530631A4601239360796A786823
:1029980000F0A4FE3B6903F00803002B0CD07B6A0F
:1029A8005A01FB69134403F530631A460823936000
:1029B800796A786800F07AFF3B6903F01003002B0E
:1029C80008D07B6A5A01FB69134403F530631A4641
:1029D800102393603B6903F00203002B30D03B6A5D
:1029E8005B6903F08003802B09D1FB6903F5006361
:1029F8005B68FA6902F5006243F4806353607A6A9F
:102A08001346DB0013449B0003F514737A681344E0
:102A180004337B617B69DB78012B08D17B69002259
:102A2800DA707B6ADBB21946786805F0F3FD7B6AD9
:102A38005A01FB69134403F530631A460223936075
:102A48003B6903F02003002B08D07B6A5A01FB691D
:102A5800134403F530631A46202393603B6903F45B
:102A68000053002B09D07B6A5A01FB69134403F514
:102A780030631A464FF4005393607B6A01337B62DC
:102A8800BB6A5B08BB62BB6A002B7FF462AF7B68E2
:102A98001B68184603F0D2F9034603F48023B3F504
:102AA800802F40F0DB807B681B68184603F0F3F941
:102AB800B86200237B62CDE0BB6A03F00103002B00
:102AC80000F0C2807B681B687A6AD2B21146184649
:102AD80003F019FA38613B6903F00103002B57D062
:102AE8007B6A03F00F03012202FA03F3FB60FB6920
:102AF80003F500635A6BFB68DB43F96901F5006174
:102B080013404B637B6A5A01FB69134403F5106356
:102B18001A46012393607B689B79012B32D179682F
:102B28007A6A1346DB0013449B000B442033196870
:102B380078687A6A1346DB0013449B0003441C330D
:102B48001B68194478687A6A1346DB0013449B00B3
:102B58000344203319607B6A002B13D179687A6AA1
:102B68001346DB0013449B000B4424331B68002BE3
:102B780008D17B6818687B6803F29C431A460121D8
:102B880003F020FA7B6ADBB21946786805F0C7FCC7
:102B98003B6903F00803002B08D07B6A5A01FB69E4
:102BA800134403F510631A46082393603B6903F046
:102BB8001003002B08D07B6A5A01FB69134403F504
:102BC80010631A46102393603B6903F04003002BFF
:102BD80008D07B6A5A01FB69134403F510631A464F
:102BE800402393603B6903F00203002B23D0796AEA
:102BF800386A02F007FA7A6A1346DB0013449B002E
:102C080010337A68134404337B617B69DB78012BCA
:102C180008D17B690022DA707B6ADBB219467868D2
:102C280005F00AFD7B6A5A01FB69134403F510633A
:102C38001A46022393603B6903F08003002B03D0FC
:102C4800796A786800F0BDFC7B6A01337B62BB6AF5
:102C58005B08BB62BB6A002B7FF42EAF7B681B68E6
:102C6800184603F0EBF8034603F00043B3F1004FB6
:102C780022D1FB6903F500635B68FA6902F500621B
:102C880023F0010353607B6893F8CC34012B08D1FF
:102C98007B68002283F8CC240021786800F0A4FE29
:102CA80002E0786805F0A8FC7B681B685A697B68B5
:102CB8001B6802F000425A617B681B68184603F0E3
:102CC800BDF8034603F40063B3F5006F12D1FB6946
:102CD80003F500639B6803F00103012B02D17868B8
:102CE80005F064FC7B681B685A697B681B6802F402
:102CF80000625A617B681B68184603F09FF8034618
:102D080003F48053B3F5805F40F0B780FB6903F5A7
:102D180000635B68FA6902F5006223F001035360FF
:102D28007B681B681021184602F06CF90023FB62CF
:102D380046E0FB6A5A01FB69134403F510631A461F
:102D48004FF67F339360FB6A5A01FB69134403F51E
:102D580010631B68FA6A5101FA690A4402F51062A5
:102D680023F400131360FB6A5A01FB69134403F54B
:102D780030631A464FF67F339360FB6A5A01FB694A
:102D8800134403F530631B68FA6A5101FA690A446F
:102D980002F5306223F400131360FB6A5A01FB69E1
:102DA800134403F530631B68FA6A5101FA690A444F
:102DB80002F5306243F000631360FB6A0133FB6283
:102DC8007B681B791A46FB6A9342B2D3FB6903F509
:102DD8000063DB69FA6902F5006243F00113D3610D
:102DE8007B68DB7B002B16D0FB6903F50063D3F807
:102DF8008430FA6902F5006243F00B03C2F88430AC
:102E0800FB6903F500635B6CFA6902F5006243F045
:102E18000B03536415E0FB6903F500635B69FA690A
:102E280002F5006243F4005343F02B035361FB693E
:102E380003F500631B69FA6902F5006243F00B03AE
:102E48001361FB6903F500631B68FA6902F5006208
:102E580023F4FE6313607B6818687B6899797B6844
:102E680003F29C431A4603F0ADF87B681B685A6965
:102E78007B681B6802F480525A617B681B6818469D
:102E880002F0DCFF034603F40053B3F5005F23D1DF
:102E98007B681B68184603F072F87B681B68184645
:102EA80002F029F903461A467B68DA717B681C68C8
:102EB80001F00AFA01467B68DB791A46204601F0E0
:102EC8002DFE786805F053FB7B681B685A697B68A0
:102ED8001B6802F400525A617B681B68184602F0AE
:102EE800ADFF034603F00803082B0AD1786805F004
:102EF80030FB7B681B685A697B681B6802F0080214
:102F08005A617B681B68184602F098FF034603F075
:102F18008003802B23D13B6A9B6923F080023B6AA4
:102F28009A6101237B6214E079687A6A1346DB00B0
:102F380013449B000B4403F257231B78012B05D144
:102F48007B6ADBB21946786800F00AFB7B6A0133BA
:102F58007B627B681B791A467B6A9342E4D37B6861
:102F68001B68184602F06AFF034603F48013B3F5A2
:102F7800801F3CD101237B622BE07B6A5A01FB69ED
:102F8800134403F510631B68BB6179687A6A1346BA
:102F9800DB0013449B000B4418331B78012B15D11D
:102FA800BB69002B12DA79687A6A1346DB0013448E
:102FB8009B000B44173301221A707B6ADBB263F063
:102FC8007F03DBB21946786800F0CAFA7B6A0133DE
:102FD8007B627B681B791A467B6A9342CDD37B68F8
:102FE8001B685A697B681B6802F480125A617B6807
:102FF8001B68184602F022FF034603F40013B3F5DA
:10300800001F56D101237B6245E07B6A5A01FB69A8
:10301800134403F530631B68BB6179687A6A134609
:10302800DB0013449B000B4403F516731B78012B3C
:103038002ED1BB69002B2BDABB691A0C7B68D3F83D
:10304800D434534003F00103002B21D179687A6A04
:103058001346DB0013449B000B4403F25723012261
:103068001A703B6A9B6943F080023B6A9A613B6A2B
:103078005B6903F08003002B0AD1FB6903F5006349
:103088005B68FA6902F5006243F40073536008E074
:103098007B6A01337B627B681B791A467B6A9342A1
:1030A800B3D37B681B685A697B681B6802F40012FB
:1030B8005A617B681B68184602F0C0FE034603F09D
:1030C8008043B3F1804F0AD1786805F0C7FA7B686E
:1030D8001B685A697B681B6802F080425A617B68EA
:1030E8001B68184602F0AAFE034603F00403042BEB
:1030F80015D17B681B685B68BB61BB6903F004037F
:10310800002B02D0786805F0B7FA7B681B6859680D
:103118007B681B68BA690A435A6000E000BF34370D
:10312800BD4690BD80B582B000AF78600B46FB709D
:103138007B6893F89434012B01D1022312E07B6859
:10314800012283F894247B68FA785A747B681B6898
:10315800FA781146184602F009FE7B68002283F8C7
:103168009424002318460837BD4680BD80B584B036
:1031780000AF7860084611461A460346FB700B46B6
:103188003B801346BB700023FB7297F90330002B7A
:103198000FDAFB7803F00F021346DB0013449B00A1
:1031A80010337A6813440433FB60FB6801225A70B9
:1031B8000FE0FB7803F00F021346DB0013449B007B
:1031C80003F514737A6813440433FB60FB68002228
:1031D8005A70FB7803F00F03DAB2FB681A703B8869
:1031E800C3F30A02FB689A60FB68BA781A71FB6835
:1031F8005B78002B04D0FB681B781A46FB685A835F
:10320800BB78022B02D1FB6800225A717B6893F8C5
:103218009434012B01D102230EE07B68012283F84C
:1032280094247B681B68F968184601F089FF7B685D
:10323800002283F89424FB7A18461037BD4680BDD7
:1032480080B584B000AF78600B46FB7097F9033007
:10325800002B0FDAFB7803F00F021346DB00134450
:103268009B0010337A6813440433FB60FB68012227
:103278005A700FE0FB7803F00F021346DB0013448B
:103288009B0003F514737A6813440433FB60FB68EE
:1032980000225A70FB7803F00F03DAB2FB681A7049
:1032A8007B6893F89434012B01D102230EE07B68EC
:1032B800012283F894247B681B68F968184601F09A
:1032C800C7FF7B68002283F8942400231846103730
:1032D800BD4680BD80B586B000AFF8607A603B60BF
:1032E8000B46FB72FB7A03F00F021346DB00134414
:1032F8009B0003F51473FA68134404337B617B69FC
:103308007A68DA607B693A681A617B6900225A61D7
:103318007B6900225A70FB7A03F00F03DAB27B69EB
:103328001A70FB689B79012B02D17A687B69DA6194
:10333800FB681868FB689B791A46796902F064F89B
:10334800002318461837BD4680BD80B483B000AF4F
:1033580078600B46FB70FB7803F00F027968134620
:10336800DB0013449B000B4403F51A731B681846D3
:103378000C37BD465DF8047B704780B586B000AF5A
:10338800F8607A603B600B46FB72FB7A03F00F0231
:103398001346DB0013449B001033FA6813440433CC
:1033A8007B617B697A68DA607B693A681A617B6954
:1033B80000225A617B6901225A70FB7A03F00F03DD
:1033C800DAB27B691A70FB689B79012B02D17A68A3
:1033D8007B69DA61FB681868FB689B791A4679692A
:1033E80002F012F8002318461837BD4680BD80B594
:1033F80084B000AF78600B46FB70FB7803F00F03D6
:103408007A681279934201D901234FE097F9033082
:10341800002B0FDAFB7803F00F021346DB0013448E
:103428009B0010337A6813440433FB60FB68012265
:103438005A700DE0FA781346DB0013449B0003F53D
:1034480014737A6813440433FB60FB6800225A70D3
:10345800FB6801229A70FB7803F00F03DAB2FB686D
:103468001A707B6893F89434012B01D102231DE074
:103478007B68012283F894247B681B68F9681846E6
:1034880002F0A0FBFB7803F00F03002B09D17B6847
:1034980018687B6899797B6803F29C431A4602F0A6
:1034A80091FD7B68002283F8942400231846103786
:1034B800BD4680BD80B584B000AF78600B46FB7018
:1034C800FB7803F00F037A681279934201D901233C
:1034D80042E097F90330002B0FDAFB7803F00F0274
:1034E8001346DB0013449B0010337A6813440433FB
:1034F800FB60FB6801225A700FE0FB7803F00F02B3
:103508001346DB0013449B0003F514737A681344D5
:103518000433FB60FB6800225A70FB6800229A7033
:10352800FB7803F00F03DAB2FB681A707B6893F834
:103538009434012B01D102230EE07B68012283F829
:1035480094247B681B68F968184602F0A9FB7B681D
:10355800002283F89424002318461037BD4680BD06
:1035680080B584B000AF78600B46FB7097F90330E4
:10357800002B0CDAFB7803F00F021346DB00134430
:103588009B0010337A6813440433FB600CE0FB782B
:1035980003F00F021346DB0013449B0003F514737A
:1035A8007A6813440433FB607B681B68F968184623
:1035B80002F0C8F90346FB72FB7A18461037BD467D
:1035C80080BD80B58AB002AF786039607B681B68BF
:1035D8007B617B693B613A681346DB0013449B00BF
:1035E80010337A6813440433FB60FB685A69FB683C
:1035F8001B699A4201D901236BE0FB681A69FB68D1
:103608005B69D31AFB61FB689B68FA699A4202D925
:10361800FB689B68FB61FB6903339B08BB612AE07D
:10362800FB681A69FB685B69D31AFB61FB689B68D6
:10363800FA699A4202D9FB689B68FB61FB6903330C
:103648009B08BB61FB68D9683B68DAB2FB6998B232
:103658007B689B7900930346786902F01DFAFB6842
:10366800DA68FB691A44FB68DA60FB685A69FB6927
:103678001A44FB685A613B685A013B69134403F5D5
:1036880010639B699BB2BA699A4209D8FB685A6968
:10369800FB681B699A4203D2FB681B69002BBFD1E8
:1036A800FB681A69FB685B699A4211D83B6803F0AA
:1036B8000F03012202FA03F3BB603B6903F50063C1
:1036C8005A6BBB68DB43396901F5006113404B63F2
:1036D800002318462037BD4680BD000080B588B05D
:1036E80000AF786039607B681B68FB61FB69BB6170
:1036F800FB693C3304331B687B613B685A01BB6937
:10370800134403F530639B683B617B689B79012B0D
:103718007BD13B6903F00803002B15D07B69614A14
:10372800934240F2B9803B6903F40043002B00F058
:10373800B3803B685A01BB69134403F530631A46EA
:103748004FF400439360A7E03B6903F02003002B8C
:1037580009D03B685A01BB69134403F530631A4624
:103768002023936098E03B6903F02803002B40F086
:1037780093807B694B4A93420FD93B6903F400431A
:10378800002B0AD03B685A01BB69134403F5306328
:103798001A464FF4004393607EE03A681346DB0014
:1037A80013449B0003F514737A6813440433FB60D5
:1037B800FB681A6A3B685901BB690B4403F530631F
:1037C8001B69C3F31203D21AFB685A613B68002BCA
:1037D80014D1FB681B69002B09D17B6818687B68CA
:1037E80003F29C431A46012102F0ECFB06E0FB6859
:1037F800DA68FB685B691A44FB68DA603B68DBB22D
:103808001946786804F070FE46E07B69264A9342C0
:1038180024D13B6903F40043002B0AD03B685A01CA
:10382800BB69134403F530631A464FF400439360B1
:1038380032E03B6903F02003002B08D03B685A01B3
:10384800BB69134403F530631A46202393603B6831
:10385800DBB21946786804F047FE1DE03B68002B90
:1038680014D179683A681346DB0013449B000B4473
:1038780003F519731B68002B08D17B6818687B68EF
:1038880003F29C431A46002102F09CFB3B68DBB222
:103898001946786804F028FE002318462037BD46EC
:1038A80080BD00BF0A30544F0A31544F80B586B0EE
:1038B80000AF786039607B681B687B617B693B611E
:1038C8007B693C3304331B68FB603B685A013B69E6
:1038D800134403F530639B68BB60FB68154A934249
:1038E8000ED9BB6803F40043002B09D03B685A018A
:1038F8003B69134403F530631A464FF40043936061
:10390800786804F0DFFDFB680A4A93420CD97B68AB
:103918009B79012B08D17B6818687B6803F29C436C
:103928001A46012102F04EFB002318461837BD46FF
:1039380080BD00BF0A30544F80B485B000AF7860B6
:103948000B46FB7013463B807B681B685B6ABB6059
:10395800FB78002B07D13B8819047B681B68BA6881
:103968000A439A6228E07B681B689B6A1B0CBA684A
:103978001344BB600023FB730DE07B681A68FB7B74
:1039880040339B0013445B681B0CBA681344BB604C
:10399800FB7B0133FB73FA7BFB78013B9A42ECD348
:1039A8003B8818047B681968FB78013BBA680243B6
:1039B80040339B000B445A60002318461437BD4619
:1039C8005DF8047B704780B483B000AF78600B4625
:1039D8007B807B681B687A885A62002318460C37FC
:1039E800BD465DF8047B704780B483B000AF786053
:1039F8000B46FB7000BF0C37BD465DF8047B704773
:103A080080B586B000AF78607B68002B01D10123B8
:103A180067E27B681B6803F00103002B75D0884BB5
:103A28009B6803F00C03042B0CD0854B9B6803F0B8
:103A38000C03082B12D1824B5B6803F48003B3F5A7
:103A4800800F0BD17E4B1B6803F40033002B5BD037
:103A58007B685B68002B57D1012342E27B685B6877
:103A6800B3F5803F06D1764B1B68754A43F4803323
:103A780013601DE07B685B68B3F5A02F0CD1704B19
:103A88001B686F4A43F4802313606D4B1B686C4AB4
:103A980043F4803313600BE0694B1B68684A23F4D6
:103AA80080331360664B1B68654A23F480231360D8
:103AB8007B685B68002B13D0FDF70CFF386108E0CA
:103AC800FDF708FF02463B69D31A642B01D903238B
:103AD80007E25B4B1B6803F40033002BF0D014E0C3
:103AE800FDF7F8FE386108E0FDF7F4FE02463B6991
:103AF800D31A642B01D90323F3E1514B1B6803F458
:103B08000033002BF0D100E000BF7B681B6803F096
:103B18000203002B63D04A4B9B6803F00C03002B75
:103B28000BD0474B9B6803F00C03082B1CD1444B6C
:103B38005B6803F48003002B16D1414B1B6803F02C
:103B48000203002B05D07B68DB68012B01D0012321
:103B5800C7E13B4B1B6823F0F8027B681B69DB005D
:103B6800374913430B603AE07B68DB68002B20D0B1
:103B7800344B01221A60FDF7ADFE386108E0FDF70D
:103B8800A9FE02463B69D31A022B01D90323A8E1F7
:103B98002B4B1B6803F00203002BF0D0284B1B684B
:103BA80023F0F8027B681B69DB00254913430B608F
:103BB80015E0244B00221A60FDF78CFE386108E0FE
:103BC800FDF788FE02463B69D31A022B01D903236D
:103BD80087E11B4B1B6803F00203002BF0D17B68C5
:103BE8001B6803F00803002B36D07B685B69002B49
:103BF80016D0154B01221A60FDF76CFE386108E0FB
:103C0800FDF768FE02463B69D31A022B01D903234C
:103C180067E10B4B5B6F03F00203002BF0D01BE056
:103C2800094B00221A60FDF755FE38610EE0FDF7DA
:103C380051FE02463B69D31A022B07D9032350E1F0
:103C48000038024000004742800E4742884B5B6FB5
:103C580003F00203002BEAD17B681B6803F004031E
:103C6800002B00F097800023FB75814B1B6C03F041
:103C78008053002B0FD10023BB607D4B1B6C7C4A0B
:103C880043F0805313647A4B1B6C03F08053BB6082
:103C9800BB680123FB75774B1B6803F48073002B0B
:103CA80018D1744B1B68734A43F480731360FDF793
:103CB80011FE386108E0FDF70DFE02463B69D31A94
:103CC800022B01D903230CE16A4B1B6803F48073B0
:103CD800002BF0D07B689B68012B06D1644B1B6FCF
:103CE800634A43F0010313671CE07B689B68052B5C
:103CF8000CD15F4B1B6F5E4A43F0040313675C4BA8
:103D08001B6F5B4A43F0010313670BE0584B1B6FB3
:103D1800574A23F001031367554B1B6F544A23F08E
:103D2800040313677B689B68002B15D0FDF7D2FD51
:103D380038610AE0FDF7CEFD02463B69D31A41F22D
:103D48008832934201D90323CBE0494B1B6F03F020
:103D58000203002BEED014E0FDF7BCFD38610AE049
:103D6800FDF7B8FD02463B69D31A41F28832934207
:103D780001D90323B5E03E4B1B6F03F00203002B70
:103D8800EED1FB7D012B05D1394B1B6C384A23F052
:103D9800805313647B689B69002B00F0A180344B2F
:103DA8009B6803F00C03082B5CD07B689B69022B93
:103DB80041D1314B00221A60FDF78CFD386108E0D3
:103DC800FDF788FD02463B69D31A022B01D903236C
:103DD80087E0274B1B6803F00073002BF0D17B684A
:103DE800DA697B681B6A1A437B685B6A9B011A4322
:103DF8007B689B6A5B08013B1B041A437B68DB6A90
:103E08001B061B4913434B601B4B01221A60FDF72D
:103E180061FD386108E0FDF75DFD02463B69D31A94
:103E2800022B01D903235CE0114B1B6803F00073DC
:103E3800002BF0D054E0104B00221A60FDF74AFD29
:103E4800386108E0FDF746FD02463B69D31A022BAC
:103E580001D9032345E0064B1B6803F00073002BD0
:103E6800F0D13DE07B689B69012B07D1012338E045
:103E78000038024000700040600047421B4B5B68FE
:103E8800FB607B689B69012B28D0FB6803F48002E8
:103E98007B68DB699A4221D1FB6803F03F027B68AB
:103EA8001B6A9A421AD1FA6847F6C07313407A68B7
:103EB800526A9201934211D1FB6803F440327B6845
:103EC8009B6A5B08013B1B049A4207D1FB6803F01D
:103ED80070627B68DB6A1B069A4201D0012300E00E
:103EE800002318461837BD4680BD00BF0038024081
:103EF80080B584B000AF786039607B68002B01D151
:103F08000123CCE0684B1B6803F007033A689A4228
:103F18000CD9654B3A68D2B21A70634B1B6803F030
:103F280007033A689A4201D00123B8E07B681B680E
:103F380003F00203002B20D07B681B6803F0040306
:103F4800002B05D0594B9B68584A43F4E0539360C3
:103F58007B681B6803F00803002B05D0534B9B6854
:103F6800524A43F460439360504B9B6823F0F0023D
:103F78007B689B684D4913438B607B681B6803F023
:103F88000103002B44D07B685B68012B07D1474BAA
:103F98001B6803F40033002B19D101237FE07B68F1
:103FA8005B68022B03D07B685B68032B07D13F4B10
:103FB8001B6803F00073002B09D101236FE03B4B12
:103FC8001B6803F00203002B01D1012367E0374B84
:103FD8009B6823F003027B685B68344913438B605A
:103FE800FDF778FCF8600AE0FDF774FC0246FB6810
:103FF800D31A41F28832934201D903234FE02B4B65
:104008009B6803F00C027B685B689B009A42EBD1CB
:10401800254B1B6803F007033A689A420CD2224BDF
:104028003A68D2B21A70204B1B6803F007033A684B
:104038009A4201D0012332E07B681B6803F0040335
:10404800002B08D0194B9B6823F4E0527B68DB688F
:10405800164913438B607B681B6803F00803002B29
:1040680009D0124B9B6823F460427B681B69DB0014
:104078000E4913438B6000F021F802460B4B9B68F6
:104088001B0903F00F030A49CB5C22FA03F3094A20
:104098001360094B1B681846FDF7D8FB0023184628
:1040A8001037BD4680BD00BF003C024000380240CA
:1040B8003C8B000804000020080000202DE9B04FC8
:1040C80094B000AF00237B640023FB6400233B64AF
:1040D8000023BB64794B9B6803F00C03082B0DD0BD
:1040E800082B00F2E180002B02D0042B03D0DBE088
:1040F800734BBB64DBE0734BBB64D8E06F4B5B680E
:1041080003F03F037B646D4B5B6803F48003002B73
:1041180063D06A4B5B689B090022BB63FA63BB6B85
:10412800C3F308033B6300237B63D7E90C452246AE
:104138002B464FF000004FF00001590141EAD261CF
:10414800500102460B462146511A3961294663EB54
:1041580001037B614FF000024FF00003D7E904AB85
:1041680059468B01514643EA916351468A015146AB
:10417800B2EB0108594663EB01094FF000024FF01A
:1041880000034FEAC90343EA58734FEAC80290464E
:104198009946234618EB0303BB602B4649EB030300
:1041A800FB604FF000024FF00003D7E902452946B3
:1041B8004B02214643EAD15321464A02104619468A
:1041C8007B6C0022BB62FA62D7E90A23FCF708F885
:1041D80002460B461346FB6458E0384B5B689B0964
:1041E800002218461146C0F308033B6200237B6295
:1041F800D7E9088942464B464FF000004FF00001CE
:10420800590141EAD261500102460B464146B2EBE0
:10421800010A494663EB010B4FF000024FF000031F
:104228004FEA8B1343EA9A634FEA8A12B2EB0A0405
:1042380063EB0B054FF000024FF00003EB0043EA7D
:104248005473E20014461D464346E3183B604B4650
:1042580045EB03037B604FF000024FF00003D7E902
:10426800004529468B02214643EA915321468A029A
:10427800104619467B6C0022BB61FA61D7E9062318
:10428800FBF7AEFF02460B461346FB640B4B5B681D
:104298001B0C03F0030301335B003B64FA6C3B6CBB
:1042A800B2FBF3F3BB6402E0054BBB6400BFBB6C1D
:1042B80018465037BD46BDE8B08F00BF00380240F1
:1042C8000024F40000127A0080B400AF034B1B688E
:1042D8001846BD465DF8047B704700BF0400002007
:1042E80080B500AFFFF7F0FF0246054B9B689B0ABD
:1042F80003F007030349CB5C22FA03F3184680BD99
:10430800003802404C8B000880B500AFFFF7DCFF97
:104318000246054B9B685B0B03F007030349CB5C24
:1043280022FA03F3184680BD003802404C8B00087F
:1043380080B582B000AFFDF7CDFA78605D4B1B68A1
:104348005C4A43F00103136008E0FDF7C3FA024634
:104358007B68D31A022B01D90323A7E0554B1B68AE
:1043680003F00203002BF0D0524B1B68514A43F074
:1043780080031360FDF7AEFA78604E4B00229A6016
:104388000AE0FDF7A7FA02467B68D31A41F28832A1
:10439800934201D9032389E0464B9B6803F00C0341
:1043A800002BEED1FDF796FA7860424B1B68414A24
:1043B80023F45023136008E0FDF78CFA02467B686B
:1043C800D31A642B01D9032370E03A4B1B6803F41A
:1043D8000033002BF0D1FDF77DFA7860354B1B6870
:1043E800344A23F08073136008E0FDF773FA02463D
:1043F8007B68D31A022B01D9032357E02D4B1B6886
:1044080003F00073002BF0D1FDF764FA7860294BB4
:104418001B68284A23F08063136008E0FDF75AFA06
:1044280002467B68D31A022B01D903233EE0214BB5
:104438001B6803F00063002BF0D11E4B1E4A5A6024
:104448001C4B1E4AC3F884201A4BDB68194A23F414
:10445800F853D360174BDB68164A23F40053D36034
:10446800144BDB68134A43F41F03D360114BDB681A
:10447800104A43F40013D3600E4B5B6F0D4A23F0D0
:10448800010353670B4B5B6F0A4A43F08073536712
:104498000B4B0C4A1A600C4B1B681846FDF7D6F9F3
:1044A8000346002B01D0012300E0002318460837FB
:1044B800BD4680BD00380240103000041030002096
:1044C800040000200024F4000800002080B582B019
:1044D80000AF78607B68002B01D1012342E07B6844
:1044E80093F84130DBB2002B06D17B68002283F8B9
:1044F80040207868FDF78CF87B68242283F84120F7
:104508007B681B68DA687B681B6822F40052DA60F3
:10451800786800F02BF87B681B681A697B681B6851
:1045280022F490421A617B681B685A697B681B6891
:1045380022F02A025A617B681B68DA687B681B686C
:1045480042F40052DA607B6800225A647B682022B9
:1045580083F841207B68202283F842207B68002270
:104568005A63002318460837BD4680BD2DE9B04F71
:10457800C0B000AFC7F8F400D7F8F4301B681B6967
:1045880023F44050D7F8F430D968D7F8F4301A68D3
:1045980040EA01031361D7F8F4309A68D7F8F43089
:1045A8001B691A43D7F8F4305B691A43D7F8F4301B
:1045B800DB691343C7F8F830D7F8F4301B68DB68B9
:1045C80023F4164121F00C01D7F8F4301A68D7F813
:1045D800F8300B43D360D7F8F4301B685B6923F4D9
:1045E8004070D7F8F4309969D7F8F4301A6840EA7F
:1045F80001035361D7F8F4301A688F4B9A4205D0FB
:10460800D7F8F4301A688D4B9A4204D1FFF77CFE34
:10461800C7F8FC0003E0FFF763FEC7F8FC00D7F813
:10462800F430DB69B3F5004F40F00C81D7F8FC306B
:104638000022C7F8E830C7F8EC20D7E93A45224607
:104648002B469118B9655B41FB65D7E916232146CE
:1046580012EB0108294643EB01094FF000024FF025
:1046680000034FEAC90343EA58734FEAC802904669
:104678009946234618EB0303C7F8E0302B4649EB6D
:104688000303C7F8E430D7F8F4305B680022C7F8B2
:10469800D830C7F8DC20D7E936120B46DB183B6563
:1046A800134642EB03037B65D7E91423D7E93801A6
:1046B800FBF796FD02460B46614BA3FB02235B0901
:1046C8001C01D7F8FC300022C7F8D030C7F8D42036
:1046D800D7E9348942464B469118B9645B41FB647B
:1046E800D7E91223414612EB010A494643EB010B75
:1046F8004FF000024FF000034FEACB0343EA5A732E
:104708004FEACA0292469B4643461AEB0303C7F890
:10471800C8304B464BEB0303C7F8CC30D7F8F4301E
:104728005B680022C7F8C030C7F8C420D7E9301248
:104738000B46DB183B64134642EB03037B64D7E963
:104748001023D7E93201FBF74BFD02460B46114611
:104758003B4BA3FB01235B09642202FB03F3CB1A47
:10476800DB0003F13202364BA3FB02235B095B003B
:1047780003F4F8731C44D7F8FC300022C7F8B830AB
:10478800C7F8BC20D7E92E8942464B469118B96331
:104798005B41FB63D7E90E2341465118396349460B
:1047A8004B417B634FF000024FF00003D7E90CAB9D
:1047B8005946CB00514643EA51735146CA00104648
:1047C8001946034642469B18C7F8B0304B460A467E
:1047D80042EB0303C7F8B430D7F8F4305B68002223
:1047E800C7F8A830C7F8AC20D7E92A120B46DB185F
:1047F800BB62134642EB0303FB62D7E90A23D7E9FE
:104808002C01FBF7EDFC02460B460D4BA3FB0213F4
:104818005B09642101FB03F3D31ADB003233084A36
:10482800A2FB03235B0903F00702D7F8F4301B68E7
:1048380022449A6006E100BF0010014000140140C4
:104848001F85EB51D7F8FC300022C7F8A030C7F815
:10485800A420D7E9288942464B46911839625B4122
:104868007B62D7E9082341465418494643EB0105C2
:104878004FF000024FF00003EB0043EA5473E200EC
:1048880014461D464346E318C7F898304B4645EB97
:104898000303C7F89C30D7F8F4305B680022C7F8E8
:1048A8009030C7F894204FF000024FF00003D7E98A
:1048B800244529468B00214643EA917321468A0004
:1048C800D7E92601FBF78CFC02460B46604BA3FB9D
:1048D80002235B091C01D7F8FC300022C7F8883096
:1048E800C7F88C20D7E9228942464B469118B9610E
:1048F8005B41FB61D7E906234146511839614946B6
:104908004B417B614FF000024FF00003D7E904AB45
:104918005946CB00514643EA51735146CA001046E6
:104928001946034642469B18C7F880304B460A464C
:1049380042EB0303C7F88430D7F8F4305B680022F1
:10494800BB67FA674FF000024FF00003D7E91E89F2
:1049580049468B00414643EA917341468A00D7E9AC
:104968002001FBF73DFC02460B461146384BA3FBE2
:1049780001235B09642202FB03F3CB1A1B013233C8
:10498800334AA2FB03235B0903F0F0031C44D7F866
:10499800FC3000223B677A67D7E91C8942464B46C0
:1049A8009118B9605B41FB60D7E902234146511871
:1049B800396049464B417B604FF000024FF00003DD
:1049C800D7E900AB5946CB00514643EA51735146EB
:1049D800CA0010461946034642469B18BB664B461A
:1049E8000A4642EB0303FB66D7F8F4305B68002203
:1049F8003B667A664FF000024FF00003D7E918894A
:104A080049468B00414643EA917341468A00D7E9FB
:104A18001A01FBF7E5FB02460B460D4BA3FB0213FD
:104A28005B09642101FB03F3D31A1B013233084AE3
:104A3800A2FB03235B0903F00F02D7F8F4301B68CD
:104A480022449A6000BF07F58077BD46BDE8B08F65
:104A58001F85EB5184B080B584B000AF786007F152
:104A68001C0080E80E0097F82130012B23D17B68C9
:104A78009B6B23F480327B689A637B68DB6823F442
:104A8800840323F040037A68D3607B68DB6823F4EF
:104A980040127B68DA6097F82830012B05D17B68D3
:104AA800DB6843F480127B68DA60786801F0E8FA22
:104AB8000346FB731BE07B68DB6843F040027B68BE
:104AC800DA60786801F0DCFA0346FB7397F8253062
:104AD800002B06D17B689B6B43F480327B689A631A
:104AE80005E07B689B6B23F480327B689A63BB7F0D
:104AF800012B0BD17B689B6843F006027B689A60A8
:104B08007B689B6843F020027B689A60FB7B1846B1
:104B18001037BD46BDE8804004B0704780B487B008
:104B280000AFF860B9601346FB71FB79022B65D1C1
:104B3800BB68414A934206D9BB68404A934202D2B5
:104B48000F237B6162E0BB683C4A934206D3BB6893
:104B58003B4A934202D20E237B6157E0BB68384A36
:104B6800934206D3BB68374A934202D20D237B6136
:104B78004CE0BB68334A934206D3BB68324A93423F
:104B880002D80C237B6141E0BB682F4A934206D9C7
:104B9800BB682E4A934202D80B237B6136E0BB6880
:104BA8002A4A934206D9BB68294A934202D80A2363
:104BB8007B612BE0BB68264A934206D9BB68254A2D
:104BC800934202D209237B6120E0BB68214A9342C9
:104BD80006D3BB68204A934202D808237B6115E0BC
:104BE800BB681D4A934206D9BB681C4A934202D24D
:104BF80007237B610AE006237B6107E0FB79002B32
:104C080002D109237B6101E009237B61FB68DB6832
:104C180023F47052FB68DA60FB68DA687B699B02F0
:104C280003F470531A43FB68DA60002318461C37F4
:104C3800BD465DF8047B7047BFACD800C0E1E40016
:104C48000024F400807306019F491A01FF2C3101EA
:104C58003FA44C0100366E011FABA6010048E801D5
:104C680080B483B000AF78607B689B6843F0010232
:104C78007B689A60002318460C37BD465DF8047BB4
:104C8800704780B483B000AF78607B689B6823F07E
:104C980001027B689A60002318460C37BD465DF810
:104CA800047B704780B584B000AF78600B46FB701A
:104CB8000023FB607B68DB6823F0C0427B68DA6016
:104CC800FB78012B15D17B68DB6843F000527B68C9
:104CD800DA600A20FCF70AFEFB680A33FB60786892
:104CE80001F03FF90346012B1ED0FB68C72BF0D912
:104CF8001AE0FB78002B15D17B68DB6843F0804213
:104D08007B68DA600A20FCF7F1FDFB680A33FB6078
:104D1800786801F026F90346002B05D0FB68C72BFD
:104D2800F0D901E0012305E0FB68C82B01D101237C
:104D380000E0002318461037BD4680BD84B080B51A
:104D480086B000AF786007F1240080E80E000023E9
:104D5800FB757B68FB6000233B6109E07A683B696F
:104D680040339B00134400225A603B6901333B6186
:104D78003B690E2BF2D997F82E30002B1CD1FB681B
:104D880003F500635B68FA6802F5006243F002030A
:104D980053607B689B6B43F400127B689A637B6863
:104DA8009B6B23F400227B689A637B689B6B23F4DC
:104DB80080227B689A630BE07B689B6B23F400126C
:104DC8007B689A637B689B6B43F400227B689A63D9
:104DD800FB6803F560631A460023136097F82930CF
:104DE800012B0DD197F82730002B04D100217868CA
:104DF80000F068F908E00121786800F063F903E041
:104E08000321786800F05EF91021786800F0FAF85C
:104E18000346002B01D00123FB75786800F024F9C4
:104E28000346002B01D00123FB75FB6803F50063E3
:104E38001A4600231361FB6803F500631A46002332
:104E48005361FB6803F500631A460023D36100230E
:104E58003B6143E03B695A01FB68134403F5106367
:104E68001B6803F00043B3F1004F18D13B69002BD6
:104E78000AD13B695A01FB68134403F510631A46CB
:104E88004FF00063136013E03B695A01FB68134459
:104E980003F510631A464FF09043136008E03B692E
:104EA8005A01FB68134403F510631A460023136084
:104EB8003B695A01FB68134403F510631A46002343
:104EC80013613B695A01FB68134403F510631A46E2
:104ED8004FF67F3393603B6901333B6197F8243089
:104EE8001A463B699342B5D300233B6143E03B69D3
:104EF8005A01FB68134403F530631B6803F0004351
:104F0800B3F1004F18D13B69002B0AD13B695A0114
:104F1800FB68134403F530631A464FF000631360CF
:104F280013E03B695A01FB68134403F530631A46E2
:104F38004FF09043136008E03B695A01FB68134443
:104F480003F530631A46002313603B695A01FB6876
:104F5800134403F530631A46002313613B695A0171
:104F6800FB68134403F530631A464FF67F339360AA
:104F78003B6901333B6197F824301A463B699342F9
:104F8800B5D3FB6803F500631B69FA6802F5006294
:104F980023F4807313617B6800229A617B686FF049
:104FA80080425A6197F82630002B05D17B689B69AF
:104FB80043F010027B689A617B689A69104B13432F
:104FC8007A68936197F82A30002B05D07B689B6933
:104FD80043F008027B689A6197F82E30012B07D1BD
:104FE8007B689B6943F0804343F004037A689361CC
:104FF800FB7D18461837BD46BDE8804004B07047B1
:1050080000383C8080B485B000AF786039600023F8
:10501800FB60FB680133FB60FB68B3F1706F01D97B
:1050280003231BE07B681B69002BF2DA0023FB607B
:105038003B689B0143F020027B681A61FB680133DF
:10504800FB60FB68B3F1706F01D9032306E07B684E
:105058001B6903F02003202BF0D0002318461437D7
:10506800BD465DF8047B704780B485B000AF7860BA
:105078000023FB60FB680133FB60FB68B3F1706FD2
:1050880001D9032318E07B681B69002BF2DA00239F
:10509800FB607B6810221A61FB680133FB60FB68C8
:1050A800B3F1706F01D9032306E07B681B6903F035
:1050B8001003102BF0D0002318461437BD465DF8B6
:1050C800047B704780B485B000AF78600B46FB70F6
:1050D8007B68FB60FB6803F500631A68FB78F96876
:1050E80001F5006113430B60002318461437BD46D1
:1050F8005DF8047B704780B487B000AF78607B6848
:105108003B613B6903F500639B6803F00603FB60A2
:10511800FB68002B02D10023FB750AE0FB68022B19
:1051280002D0FB68062B02D10223FB7501E00F2396
:10513800FB75FB7D18461C37BD465DF8047B704740
:1051480080B485B000AF786039607B68FB603B68ED
:105158001B78BB603B685B78012B3AD1FB6803F591
:105168000063DA693B681B7803F00F03012101FA39
:1051780003F39BB2F96801F500611343CB61BB6887
:105188005A01FB68134403F510631B6803F40043DA
:10519800002B55D1BB685A01FB68134403F5106313
:1051A8001A683B689B68C3F30A013B681B799B0438
:1051B8001943BB689B050B431343BA685101FA684E
:1051C8000A4402F5106243F0805343F4004313602D
:1051D80036E0FB6803F50063DA693B681B7803F087
:1051E8000F03012101FA03F31B04F96801F50061BB
:1051F8001343CB61BB685A01FB68134403F5306362
:105208001B6803F40043002B1AD1BB685A01FB68E2
:10521800134403F530631A683B689B68C3F30A01BB
:105228003B681B799B040B431343BA685101FA6826
:105238000A4402F5306243F0805343F4004313609C
:10524800002318461437BD465DF8047B70470000FC
:1052580080B485B000AF786039607B68FB603B68DC
:105268001B78BB603B685B78012B61D1BB685A0136
:10527800FB68134403F510631B6803F00043B3F1A4
:10528800004F1FD1BB685A01FB68134403F5106334
:105298001B68BA685101FA680A4402F5106243F0C3
:1052A80000631360BB685A01FB68134403F510637D
:1052B8001B68BA685101FA680A4402F5106243F0A3
:1052C80080431360FB6803F50063DA6B3B681B7867
:1052D80003F00F03012101FA03F39BB2DB43F968E2
:1052E80001F500611340CB63FB6803F50063DA69DD
:1052F8003B681B7803F00F03012101FA03F39BB20B
:10530800DB43F96801F500611340CB61BB685A01C2
:10531800FB68134403F510631A68BB685901FB68FE
:105328000B4403F510631946354B13400B6060E0DE
:10533800BB685A01FB68134403F530631B6803F02C
:105348000043B3F1004F1FD1BB685A01FB681344F7
:1053580003F530631B68BA685101FA680A4402F51C
:10536800306243F000631360BB685A01FB68134462
:1053780003F530631B68BA685101FA680A4402F5FC
:10538800306243F080431360FB6803F50063DA6B17
:105398003B681B7803F00F03012101FA03F31B0498
:1053A800DB43F96801F500611340CB63FB6803F543
:1053B8000063DA693B681B7803F00F03012101FAE7
:1053C80003F31B04DB43F96801F500611340CB616B
:1053D800BB685A01FB68134403F530631A68BB685D
:1053E8005901FB680B4403F530631946054B13401C
:1053F8000B60002318461437BD465DF8047B7047E0
:10540800007833EC0078F3EF80B58AB002AFF8602B
:10541800B9601346FB71FB68FB61BB681B78BB6115
:10542800BB685B78012B40F07F81BB681B69002B50
:1054380032D1BB695A01FB69134403F510631B6938
:10544800BA695101FA690A4402F5106223F0FF5360
:1054580023F4C0131361BB695A01FB69134403F5B4
:1054680010631B69BA695101FA690A4402F51062AE
:1054780043F400231361BB695A01FB69134403F524
:1054880010631B69BA695101FA690A4402F510628E
:10549800DB0CDB04136197E0BB695A01FB69134419
:1054A80003F510631B69BA695101FA690A4402F5E8
:1054B8001062DB0CDB041361BB695A01FB691344FE
:1054C80003F510631B69BA695101FA690A4402F5C8
:1054D800106223F0FF5323F4C0131361BB69002B40
:1054E8001AD1BB681A69BB689B689A4203D9BB6822
:1054F8009A68BB681A61BB695A01FB69134403F5D2
:1055080010631B69BA695101FA690A4402F510620D
:1055180043F40023136144E0BB681A69BB689B68C5
:1055280013445A1EBB689B68B2FBF3F3FB82BB694A
:105538005A01FB69134403F510631A69FB8AD904FD
:10554800A44B0B40B9694801F969014401F51061A0
:1055580013430B61BB681B79012B22D1BB695A012C
:10556800FB69134403F510631B69BA695101FA69B1
:105578000A4402F5106223F0C0431361BB695A0163
:10558800FB69134403F510631A69FB8A5B0703F090
:10559800C043B9694801F969014401F51061134331
:1055A8000B61BB695A01FB69134403F510631A695F
:1055B800BB681B69C3F31203B9694801F96901445F
:1055C80001F5106113430B61FB79012B4BD1BB68CB
:1055D800DB69002B09D0BB695A01FB69134403F549
:1055E80010631A46BB68DB695361BB681B79012BE2
:1055F80028D1FB6903F500639B6803F48073002BD3
:1056080010D1BB695A01FB69134403F510631B6889
:10561800BA695101FA690A4402F5106243F000536D
:1056280013600FE0BB695A01FB69134403F510636B
:105638001B68BA695101FA690A4402F5106243F01D
:1056480080531360BB695A01FB69134403F5106367
:105658001B68BA695101FA690A4402F5106243F0FD
:105668000443136066E1BB695A01FB69134403F5FF
:1056780010631B68BA695101FA690A4402F510629D
:1056880043F004431360BB681B79012B15D0BB683A
:105698001B69002B00F04E81FB6903F500635A6B10
:1056A800BB681B7803F00F03012101FA03F3F969C2
:1056B80001F5006113434B633CE1FB6903F50063AB
:1056C8009B6803F48073002B10D1BB695A01FB69F6
:1056D800134403F510631B68BA695101FA690A4457
:1056E80002F5106243F0005313600FE0BB695A01E2
:1056F800FB69134403F510631B68BA695101FA6921
:105708000A4402F5106243F080531360BB68D968FD
:10571800BB681A78BB681B6998B2FB79009303468B
:10572800F86800F0B9F905E1BB695A01FB6913444F
:1057380003F530631B69BA695101FA690A4402F535
:105748003062DB0CDB041361BB695A01FB6913444B
:1057580003F530631B69BA695101FA690A4402F515
:10576800306223F0FF5323F4C0131361BB69002B8D
:1057780032D1BB681B69002B03D0BB689A68BB6831
:105788001A61BB689A68BB681A62BB695A01FB69EF
:10579800134403F530631A69BB681B6AC3F3120329
:1057A800B9694801F969014401F5306113430B6196
:1057B800BB695A01FB69134403F530631B69BA6975
:1057C8005101FA690A4402F5306243F40023136177
:1057D80062E000BF0000F81FBB681B69002B23D1E3
:1057E800BB695A01FB69134403F530631A69BB6846
:1057F8009B68C3F31203B9694801F969014401F5CB
:10580800306113430B61BB695A01FB69134403F50B
:1058180030631B69BA695101FA690A4402F53062BA
:1058280043F40023136137E0BB681A69BB689B68BF
:1058380013445A1EBB689B68B2FBF3F3FB82BB6838
:105848009B68FA8A03FB02F2BB681A62BB695A01B9
:10585800FB69134403F530631A69FB8AD904384B92
:105868000B40B9694801F969014401F530611343F6
:105878000B61BB695A01FB69134403F530631A696C
:10588800BB681B6AC3F31203B9694801F96901448B
:1058980001F5306113430B61FB79012B0DD1BB6816
:1058A800DB68002B09D0BB68D968BB695A01FB6962
:1058B800134403F530630A465A61BB681B79012B10
:1058C80028D1FB6903F500639B6803F48073002B00
:1058D80010D1BB695A01FB69134403F530631B6897
:1058E800BA695101FA690A4402F5306243F000537B
:1058F80013600FE0BB695A01FB69134403F5306379
:105908001B68BA695101FA690A4402F5306243F02A
:1059180080531360BB695A01FB69134403F5306374
:105928001B68BA695101FA690A4402F5306243F00A
:1059380004431360002318462037BD4680BD00BFCE
:105948000000F81F80B487B000AF7860396000238A
:10595800FB600023FB757B683B613B685B78012B30
:105968004AD13B681B785A013B69134403F510631D
:105978001B6803F00043B3F1004F40F086803B689A
:105988001B785A013B69134403F510631B683A6896
:10599800127851013A690A4402F5106243F0006333
:1059A80013603B681B785A013B69134403F5106385
:1059B8001B683A68127851013A690A4402F5106284
:1059C80043F080431360FB680133FB60FB6842F2DD
:1059D8001072934202D90123FB7556E03B681B788D
:1059E8005A013B69134403F510631B6803F0004335
:1059F800B3F1004FE7D048E03B681B785A013B6998
:105A0800134403F530631B6803F00043B3F1004F00
:105A18003BD13B681B785A013B69134403F530635B
:105A28001B683A68127851013A690A4402F53062F3
:105A380043F0006313603B681B785A013B691344C9
:105A480003F530631B683A68127851013A690A44D1
:105A580002F5306243F080431360FB680133FB605A
:105A6800FB6842F21072934202D90123FB750CE0E5
:105A78003B681B785A013B69134403F530631B6884
:105A880003F00043B3F1004FE7D0FB7D18461C3705
:105A9800BD465DF8047B704780B489B000AFF860FC
:105AA800B96011461A460B46FB711346BB80FB686A
:105AB8007B61BB68FB6197F82830002B23D1BB883A
:105AC80003339B083B610023BB6118E0FB791A0391
